:100000000C9472000C9493000C9493000C94930045
:100010000C9493000C9493000C9493000C94930014
:100020000C9493000C9493000C9493000C94930004
:100030000C9493000C9493000C9493000C949300F4
:100040000C9493000C9493000C9493000C949300E4
:100050000C9493000C9493000C9493000C949300D4
:100060000C9493000C9493000C9493000C949300C4
:100070000C9493000C9493000C9493000C949300B4
:100080000C9493000C9493000C9493000C949300A4
:100090000C9493000C9493000C9493000C94930094
:1000A0000C9493000C9493000C9493000C94930084
:1000B0000C9493000C9493000C9493000C94930074
:1000C0000C9493000C9493000C9493000C94930064
:1000D0000C9493000C9493000C9421020C949300C4
:1000E0000C94930011241FBECFEFD1E2DEBFCDBF31
:1000F00000E00CBF12E0A0E0B2E0ECE9F6E000E0C6
:100100000BBF02C007900D92A635B107D9F712E0D8
:10011000A6E5B2E001C01D92A836B107E1F70E9442
:10012000CB020C944C030C94000086E190E90197FB
:10013000F1F700004098419880E388B9429A29E598
:1001400030E442E0215030404040E1F70000429866
:10015000A6E1B0E91197F1F700004098419888B9FD
:10016000429A29E530E442E0215030404040E1F736
:1001700000004298A6E1B0E91197F1F7000040981D
:10018000419888B9429A29E530E442E02150304054
:100190004040E1F70000429886E190E90197F1F7CD
:1001A00000004098419880E288B9429A29E530E4FD
:1001B00042E0215030404040E1F70000429808956D
:1001C00098B19F7098B998B1282F207F922B98B939
:1001D00040984198429A29E530E442E0215030406D
:1001E0004040E1F70000429898B19F7098B998B1EB
:1001F0008295807F892B88B940984198429A89E5F9
:1002000090E4A2E081509040A040E1F700004298C5
:1002100008950E94950086E190E90197F1F70000AA
:1002200088E20E94E00081E00E94E00086E00E94F7
:10023000E0008EE00E94E00080E80E94E000089567
:1002400098B19F7098B998B1282F207F922B98B9B8
:10025000409A4198429A29E530E442E021503040EA
:100260004040E1F70000429898B19F7098B998B16A
:100270008295807F892B88B9409A4198429A89E576
:1002800090E4A2E081509040A040E1F70000429845
:10029000089580E80E94E0000895CF93DF93EC0179
:1002A0008881882331F021960E942001899188233A
:1002B000D9F7DF91CF910895823079F0833018F427
:1002C0008130C9F405C0833069F08430A1F40FC0D7
:1002D000862F81580E94E0000895862F81540E9445
:1002E000E0000895862F8D560E94E0000895862F25
:1002F0008D520E94E00008950F931F93CF93DF93D8
:100300008A01E901882311F0662319F40E9449014A
:1003100002C00E945C01C530D10571F4C80160E1E2
:1003200077E20E942F03CB01C09690935D028093E9
:100330005C020E94200103C0C430D105B9F4C80199
:1003400068EE73E00E942F03CB0170935F0260930D
:100350005E026AE070E00E942F03C09690936702ED
:10036000809366020E94200181E001C080E0C330DA
:10037000D10511F08130B1F4C80164E670E00E944B
:100380002F03CB0170935F0260935E026AE070E01E
:100390000E942F03C09690936302809362020E9492
:1003A000200181E0C230D10511F08130B1F42AE0A2
:1003B00030E0C801B9010E942F03CB0170935F02A6
:1003C00060935E02B9010E942F03C0969093610270
:1003D000809360020E94200181E0C130D10511F0BC
:1003E000813061F4C8016AE070E00E942F03C0967A
:1003F00090936502809364020E942001C630D1056B
:100400001CF085E40E942001DF91CF911F910F9194
:10041000089587B1876F87B988B1807888B90895C2
:10042000E1E3F1E0108280E28093300186E0809386
:1004300032018FE5809334011092350188E9808381
:1004400008951F920F920FB60F920BB60F921124C0
:100450002F938F939F93EF93FF9381E090E090937E
:100460005702809356028091580290915902209130
:100470003601FC01E65BFD4F208301969093590203
:10048000809358028C30910529F4109259021092F1
:100490005802F894FF91EF919F918F912F910F90B7
:1004A0000BBE0F900FBE0F901F901895CF93DF9348
:1004B00081E00E94E00080E092E00E944D018EEF1A
:1004C0009BE1A4EB81509040A040E1F700C000C048
:1004D00080915602909157028130910509F03DC0FC
:1004E000F894109259021092580281E061E00E9443
:1004F0005C018CE092E00E944D0182E061E00E948C
:100500005C0110925B0210925A0280E090E0CAE413
:10051000D2E08C0F9D1FDC018C910E942001809104
:100520005A0290915B02019690935B0280935A026B
:100530008C30910570F38FE791E9A0E781509040EE
:10054000A040E1F700C0000081E00E94E0001092AE
:1005500057021092560278940FC081E061E00E9429
:100560005C0187E192E00E944D0186EE94E8AFE1E4
:1005700081509040A040E1F7DF91CF910895F89429
:100580000E9409020E9409010E94100278940895B5
:100590008AE492E00895CF93DF93CDB7DEB72D972D
:1005A0000FB6F894DEBF0FBECDBFDE011196EDE3AE
:1005B000F2E08DE001900D928150E1F70E94BF02C0
:1005C0000F2EF0E3EF2EF2E0FF2EF02D0F2EF5E2CE
:1005D000CF2EF2E0DF2EF02D8FE793E8A6E18150D9
:1005E0009040A040E1F700C000000E9456020E9427
:1005F000C8028C0181E061E00E945C01C8010E9498
:100600004D018FEF96E0ADE281509040A040E1F7C0
:1006100000C0C801BE016F5F7F4F0E944303282FB7
:10062000392F2115310541F482E061E00E945C011F
:10063000C6010E944D0107C082E061E00E945C019A
:10064000C7010E944D018FEF96E0ADE281509040CE
:10065000A040E1F700C081E00E94E000BDCFAA1BEE
:10066000BB1B51E107C0AA1FBB1FA617B70710F09D
:10067000A61BB70B881F991F5A95A9F780959095CF
:10068000BC01CD010895FB01DC018D910190801921
:0C0690000110D9F3990B0895F894FFCFE6
:10069C007363616E6E696E672E2E2E0020202057BC
:1006AC00454C434F4D45005363616E206167616952
:1006BC006E2E2E2E002056616C69642054616700EA
:1006CC0020696E76616C6964207461670034313026
:1006DC0030413335324539353900200000000000F7
:0606EC0000000000000008
:00000001FF
