:100000000C9472000C9493000C9493000C94930045
:100010000C9493000C9493000C9493000C94930014
:100020000C9493000C9493000C9493000C94930004
:100030000C9493000C9493000C9493000C949300F4
:100040000C9493000C9493000C9493000C949300E4
:100050000C9493000C9493000C9493000C949300D4
:100060000C9493000C9493000C9493000C949300C4
:100070000C9493000C9493000C9493000C949300B4
:100080000C9493000C9493000C9493000C949300A4
:100090000C9493000C9493000C9493000C94930094
:1000A0000C9493000C9493000C9493000C94930084
:1000B0000C9493000C9493000C9493000C94930074
:1000C0000C9493000C9493000C9493000C94930064
:1000D0000C9493000C9493000C9493000C94930054
:1000E0000C94930011241FBECFEFD1E2DEBFCDBF31
:1000F00000E00CBF12E0A0E0B2E0E4E6F6E000E0D1
:100100000BBF02C007900D92A633B107D9F712E0DA
:10011000A6E3B2E001C01D92AC34B107E1F70E9442
:100120000B030C9430030C94000086E69EE00197CC
:10013000F1F700004098419880E388B9429AEFEFC8
:10014000F7E43197F1F700C000004298E6E6FEE0E0
:100150003197F1F700004098419888B9429AEFEF43
:10016000F7E43197F1F700C000004298E6E6FEE0C0
:100170003197F1F700004098419888B9429A8FEF83
:1001800097E40197F1F700C000004298E6E6FEE030
:100190003197F1F700004098419880E288B9429A7F
:1001A0008FEF97E40197F1F700C00000429808959F
:1001B00098B19F7098B998B1282F207F922B98B949
:1001C00040984198429AEFEFF7E43197F1F700C079
:1001D0000000429898B19F7098B998B18295807F3D
:1001E000892B88B940984198429A8FEF97E40197FC
:1001F000F1F700C00000429808950E94950086E63D
:100200009EE00197F1F7000088E20E94D80081E0AB
:100210000E94D80086E00E94D8008EE00E94D8009C
:1002200080E80E94D800089598B19F7098B998B15D
:10023000282F207F922B98B9409A4198429AEFEF4D
:10024000F7E43197F1F700C00000429898B19F7031
:1002500098B998B18295807F892B88B9409A419846
:10026000429A8FEF97E40197F1F700C0000042989F
:10027000089580E80E94D8000895CF93DF93EC01A1
:100280008881882331F021960E9414018991882366
:10029000D9F7DF91CF910895823079F0833018F447
:1002A0008130C9F405C0833069F08430A1F40FC0F7
:1002B000862F81580E94D8000895862F81540E946D
:1002C000D8000895862F8D560E94D8000895862F55
:1002D0008D520E94D80008950F931F93CF93DF9300
:1002E0008A01E901882311F0662319F40E9439017B
:1002F00002C00E944C01C530D10571F4C80160E113
:1003000077E20E941C03CB01C09690933D0280933C
:100310003C020E94140103C0C430D105B9F4C801E5
:1003200068EE73E00E941C03CB017093400260935F
:100330003F026AE070E00E941C03C09690934B025B
:1003400080934A020E94140181E001C080E0C33022
:10035000D10511F08130B1F4C80164E670E00E946B
:100360001C03CB017093400260933F026AE070E08F
:100370000E941C03C09690934702809346020E94FD
:10038000140181E0C230D10511F08130B1F42AE0CE
:1003900030E0C801B9010E941C03CB0170934002F8
:1003A00060933F02B9010E941C03C09690934402DF
:1003B000809343020E94140181E0C130D10511F005
:1003C000813061F4C8016AE070E00E941C03C096AD
:1003D00090934902809348020E941401C630D105CF
:1003E0001CF085E40E941401DF91CF911F910F91C1
:1003F000089587B1876F87B988B1807888B90895E3
:1004000010BA11BA10920701109208010895EAE794
:10041000F0E0108210927B0080E280937C0080E804
:1004200080BF86E880830895883018F098E0909324
:100430007B008770806280937C00EAE7F0E0808137
:1004400080648083808184FFFDCF80917900EAE71A
:10045000F0E090819061908310927B0008958EE08F
:100460000E94140280933B028FE00E94140280934A
:1004700045028BE00E9414028093420281E061E019
:100480000E944C0180E092E00E943D0140913B02BD
:1004900081E064E050E023E030E00E946C0181E004
:1004A00067E00E944C0185E092E00E943D0140918E
:1004B000450281E06BE050E023E030E00E946C01F7
:1004C00082E061E00E944C018BE092E00E943D01DD
:1004D0004091420282E064E050E023E030E00E947C
:1004E0006C0108950E94F9010E9400020895809114
:1004F0003B028A35D0F480914502803658F08091D5
:1005000042028B3638F481E08093390280913B02BD
:100510008A3558F4809145028F3438F48091420234
:100520008B3618F481E080933A0280913B02853645
:1005300058F0809145028F3538F4809142028B3615
:1005400018F481E08093380280913B028B3458F498
:10055000809145028F3538F4809142028B3618F431
:1005600081E08093370280913B028155893068F4A5
:1005700080914502863548F08C3538F480914202EE
:100580008E3618F481E080933602809139028130F2
:1005900041F482E06AE00E944C0180E192E00E9416
:1005A0003D0180913A02813041F482E06AE00E948C
:1005B0004C0186E192E00E943D0180913802813039
:1005C00041F482E06AE00E944C018DE192E00E94D9
:1005D0003D0180913702813041F482E06AE00E945F
:1005E0004C0184E292E00E943D018091360281300C
:1005F00041F482E06AE00E944C018BE292E00E94AA
:100600003D010895F8940E9472020E94FD000E942C
:100610000702789408950E9402030E942F020E940C
:10062000770210923602109238021092370210921E
:100630003A0210923902F1CFAA1BBB1B51E107C04D
:10064000AA1FBB1FA617B70710F0A61BB70B881F62
:10065000991F5A95A9F780959095BC01CD010895F1
:04066000F894FFCF3C
:1006640058203D20002079203D20007A203D2000A4
:100674007269676874006C65667420200062616347
:100684006B20200066776420202000737465616409
:0606940079202020000087
:00000001FF
