:100000000C9472000C9493000C9493000C94930045
:100010000C9493000C9493000C9493000C94930014
:100020000C9493000C9493000C9493000C94930004
:100030000C9493000C9493000C9493000C949300F4
:100040000C9493000C9493000C9493000C949300E4
:100050000C9493000C9493000C9493000C949300D4
:100060000C9493000C9493000C9493000C949300C4
:100070000C9493000C9493000C9493000C949300B4
:100080000C9493000C9493000C9493000C949300A4
:100090000C9493000C9493000C9493000C94930094
:1000A0000C9493000C9493000C9493000C94930084
:1000B0000C9493000C9493000C9493000C94930074
:1000C0000C9493000C9493000C9493000C94930064
:1000D0000C9493000C9493000C9493000C94930054
:1000E0000C94930011241FBECFEFD1E2DEBFCDBF31
:1000F00000E00CBF12E0A0E0B2E0E4E9F5E000E0CF
:100100000BBF02C007900D92AC31B107D9F712E0D6
:10011000ACE1B2E001C01D92AF32B107E1F70E943D
:100120008A020C94C8020C94000086E69EE00197B7
:10013000F1F700004098419880E388B9429AEFEFC8
:10014000F7E43197F1F700C000004298E6E6FEE0E0
:100150003197F1F700004098419888B9429AEFEF43
:10016000F7E43197F1F700C000004298E6E6FEE0C0
:100170003197F1F700004098419888B9429A8FEF83
:1001800097E40197F1F700C000004298E6E6FEE030
:100190003197F1F700004098419880E288B9429A7F
:1001A0008FEF97E40197F1F700C00000429808959F
:1001B00098B19F7098B998B1282F207F922B98B949
:1001C00040984198429AEFEFF7E43197F1F700C079
:1001D0000000429898B19F7098B998B18295807F3D
:1001E000892B88B940984198429A8FEF97E40197FC
:1001F000F1F700C00000429808950E94950086E63D
:100200009EE00197F1F7000088E20E94D80081E0AB
:100210000E94D80086E00E94D8008EE00E94D8009C
:1002200080E80E94D800089598B19F7098B998B15D
:10023000282F207F922B98B9409A4198429AEFEF4D
:10024000F7E43197F1F700C00000429898B19F7031
:1002500098B998B18295807F892B88B9409A419846
:10026000429A8FEF97E40197F1F700C0000042989F
:10027000089580E80E94D8000895CF93DF93EC01A1
:100280008881882331F021960E9414018991882366
:10029000D9F7DF91CF910895823079F0833018F447
:1002A0008130C9F405C0833069F08430A1F40FC0F7
:1002B000862F81580E94D8000895862F81540E946D
:1002C000D8000895862F8D560E94D8000895862F55
:1002D0008D520E94D80008950F931F93CF93DF9300
:1002E0008A01E901882311F0662319F40E9439017B
:1002F00002C00E944C01C530D10571F4C80160E113
:1003000077E20E94B402CB01C09690931D028093C5
:100310001C020E94140103C0C430D105B9F4C80105
:1003200068EE73E00E94B402CB01709321026093E7
:1003300020026AE070E00E94B402C09690932E0200
:1003400080932D020E94140181E001C080E0C3303F
:10035000D10511F08130B1F4C80164E670E00E946B
:10036000B402CB0170932102609320026AE070E036
:100370000E94B402C09690932802809327020E94A4
:10038000140181E0C230D10511F08130B1F42AE0CE
:1003900030E0C801B9010E94B402CB017093210280
:1003A00060932002B9010E94B402C0969093260285
:1003B000809325020E94140181E0C130D10511F023
:1003C000813061F4C8016AE070E00E94B402C09616
:1003D00090932C0280932B020E941401C630D10509
:1003E0001CF085E40E941401DF91CF911F910F91C1
:1003F000089587B1876F87B988B1807888B90895E3
:10040000249A85B115B8089510BA11BA109207014F
:10041000109208010895EAE7F0E0108210927B0044
:1004200080E280937C0080E880BF86E88083089526
:10043000883018F098E090937B00877080628093FA
:100440007C008FEF9FEBA6E081509040A040E1F749
:1004500000C00000EAE7F0E08081806480838FEFD5
:100460009FEBA6E081509040A040E1F700C0000063
:10047000808184FFFDCF209178008091790090E009
:10048000880F991F880F991FEAE7F0E030813061EB
:10049000308310927B00229526952695237030E0BC
:1004A000822B932B08958EE00E94180290932302D2
:1004B0008093220280E092E00E943D0182E061E0B0
:1004C0000E944C018DE092E00E943D014091220289
:1004D0005091230282E06AE023E030E00E946C0148
:1004E00088E192E00E943D0108950E94F9010E9476
:1004F00004020895F8940E9475020E94FD000E9473
:100500000B020E940002789408958091220290913B
:10051000230208950E947A022C9A86EF8A95F1F7B9
:1005200085B115B80E9453028FEF9FE7A6E1815075
:100530009040A040E1F700C0000081E061E00E942F
:100540004C010E948502AC0181E061E025E030E0D1
:100550000E946C018FEF9FE7A6E181509040A04080
:10056000E1F700C00000D8CFAA1BBB1B51E107C0B8
:10057000AA1FBB1FA617B70710F0A61BB70B881F33
:10058000991F5A95A9F780959095BC01CD010895C2
:04059000F894FFCF0D
:1005940020202020452059616E74726100446973E3
:0C05A40074616E63653D200020636D00F3
:00000001FF
