:100000000C9472000C9493000C9493000C94930045
:100010000C9493000C9493000C9493000C94930014
:100020000C9493000C9493000C9493000C94930004
:100030000C9493000C9493000C9493000C949300F4
:100040000C9493000C9493000C9493000C949300E4
:100050000C9493000C9493000C9493000C949300D4
:100060000C9493000C9493000C9493000C949300C4
:100070000C9493000C9493000C9493000C949300B4
:100080000C9493000C9493000C9493000C949300A4
:100090000C9493000C9493000C9493000C94930094
:1000A0000C9493000C9493000C9493000C94930084
:1000B0000C9493000C9493000C9493000C94930074
:1000C0000C9493000C9493000C9493000C94930064
:1000D0000C9493000C9493000C94C6000C94930021
:1000E0000C94930011241FBECFEFD1E2DEBFCDBF31
:1000F00000E00CBF12E0A0E0B2E0EAEDF1E000E0C9
:100100000BBF02C007900D92A030B107D9F712E0E3
:10011000A0E0B2E001C01D92A130B107E1F70E945A
:10012000E8000C94EB000C9400003B9A439808956F
:1001300081B18F6081B982B1807F82B9EAE0F1E05C
:10014000808188618083EBE0F1E080818861808339
:1001500008950E9498000E949500089586B18860D5
:1001600088B9089586B1877F88B90895E1E3F1E001
:1001700010821092300186E0809332018FE58093E7
:1001800034011092350188E9808308951F920F92FF
:100190000FB60F920BB60F9211248F93EF93FF932C
:1001A000E6E3F1E08081809300028F5F8083FF911E
:1001B000EF918F910F900BBE0F900FBE0F901F907D
:1001C0001895F8940E94A9000E94B60078940895AA
:0A01D0000E94E100FFCFF894FFCF7A
:00000001FF
