:100000000C9472000C9493000C9493000C94930045
:100010000C9493000C9493000C9493000C94930014
:100020000C9493000C9493000C9493000C94930004
:100030000C9493000C9493000C9493000C949300F4
:100040000C9493000C9493000C9493000C949300E4
:100050000C9493000C9493000C9493000C949300D4
:100060000C9493000C9493000C9493000C949300C4
:100070000C9493000C9493000C9493000C949300B4
:100080000C9493000C9493000C9493000C949300A4
:100090000C9493000C9493000C9493000C94930094
:1000A0000C9493000C9493000C9493000C94930084
:1000B0000C9493000C9493000C9493000C94930074
:1000C0000C9493000C9493000C9493000C94930064
:1000D0000C9493000C9493000C9421020C949300C4
:1000E0000C94930011241FBECFEFD1E2DEBFCDBF31
:1000F00000E00CBF12E0A0E0B2E0E2E4F5E000E0D6
:100100000BBF02C007900D92AC30B107D9F712E0D7
:10011000ACE0B2E001C01D92A832B107E1F70E9445
:1001200088020C949F020C94000086E190E90197EC
:10013000F1F700004098419880E388B9429A29E598
:1001400030E442E0215030404040E1F70000429866
:10015000A6E1B0E91197F1F700004098419888B9FD
:10016000429A29E530E442E0215030404040E1F736
:1001700000004298A6E1B0E91197F1F7000040981D
:10018000419888B9429A29E530E442E02150304054
:100190004040E1F70000429886E190E90197F1F7CD
:1001A00000004098419880E288B9429A29E530E4FD
:1001B00042E0215030404040E1F70000429808956D
:1001C00098B19F7098B998B1282F207F922B98B939
:1001D00040984198429A29E530E442E0215030406D
:1001E0004040E1F70000429898B19F7098B998B1EB
:1001F0008295807F892B88B940984198429A89E5F9
:1002000090E4A2E081509040A040E1F700004298C5
:1002100008950E94950086E190E90197F1F70000AA
:1002200088E20E94E00081E00E94E00086E00E94F7
:10023000E0008EE00E94E00080E80E94E000089567
:1002400098B19F7098B998B1282F207F922B98B9B8
:10025000409A4198429A29E530E442E021503040EA
:100260004040E1F70000429898B19F7098B998B16A
:100270008295807F892B88B9409A4198429A89E576
:1002800090E4A2E081509040A040E1F70000429845
:10029000089580E80E94E0000895CF93DF93EC0179
:1002A0008881882331F021960E942001899188233A
:1002B000D9F7DF91CF910895823079F0833018F427
:1002C0008130C9F405C0833069F08430A1F40FC0D7
:1002D000862F81580E94E0000895862F81540E9445
:1002E000E0000895862F8D560E94E0000895862F25
:1002F0008D520E94E00008950F931F93CF93DF93D8
:100300008A01E901882311F0662319F40E9449014A
:1003100002C00E945C01C530D10571F4C80160E1E2
:1003200077E20E948B02CB01C09690931D028093CE
:100330001C020E94200103C0C430D105B9F4C801D9
:1003400068EE73E00E948B02CB0170931F026093F2
:100350001E026AE070E00E948B02C0969093270212
:10036000809326020E94200181E001C080E0C3301A
:10037000D10511F08130B1F4C80164E670E00E944B
:100380008B02CB0170931F0260931E026AE070E043
:100390000E948B02C09690932302809322020E94B7
:1003A000200181E0C230D10511F08130B1F42AE0A2
:1003B00030E0C801B9010E948B02CB0170931F028B
:1003C00060931E02B9010E948B02C0969093210295
:1003D000809320020E94200181E0C130D10511F0FC
:1003E000813061F4C8016AE070E00E948B02C0961F
:1003F00090932502809324020E942001C630D105EB
:100400001CF085E40E942001DF91CF911F910F9194
:10041000089587B1876F87B988B1807888B90895C2
:10042000E1E3F1E0108280E28093300186E0809386
:1004300032018FE5809334011092350188E9808381
:1004400008951F920F920FB60F920BB60F921124C0
:100450002F933F934F935F936F937F938F939F93CC
:10046000AF93BF93EF93FF9380910C0290910D0295
:10047000E6E3F1E02081DC01A05FBD4F2C932083F7
:10048000019690930D0280930C028C30910521F51A
:1004900010920D0210920C0210920F0210920E0296
:1004A00081E061E00E945C0180E092E00E944D01E9
:1004B00082E061E00E945C0180E192E00E944D01D7
:1004C0008FEF92E2A1EE81509040A040E1F700C092
:1004D000000081E00E94E000FF91EF91BF91AF9199
:1004E0009F918F917F916F915F914F913F912F914C
:1004F0000F900BBE0F900FBE0F901F901895F894A1
:100500000E9409020E9409010E9410027894089535
:100510000E947F02FFCFAA1BBB1B51E107C0AA1F8D
:10052000BB1FA617B70710F0A61BB70B881F991F94
:100530005A95A9F780959095BC01CD010895F8943E
:02054000FFCFEB
:0C05420020202057454C434F4D45000041
:00000001FF
