:100000000C9472000C9493000C9493000C94930045
:100010000C9493000C9493000C9493000C94930014
:100020000C9493000C9493000C9493000C94930004
:100030000C9493000C9493000C9493000C949300F4
:100040000C9493000C9493000C9493000C949300E4
:100050000C9493000C9493000C9493000C949300D4
:100060000C9493000C9493000C9493000C949300C4
:100070000C9493000C9493000C9493000C949300B4
:100080000C9493000C9493000C9493000C949300A4
:100090000C9493000C9493000C9493000C94930094
:1000A0000C9493000C9493000C9493000C94930084
:1000B0000C9493000C9493000C9493000C94930074
:1000C0000C9493000C9493000C9493000C94930064
:1000D0000C9493000C9493000C9493000C94930054
:1000E0000C94930011241FBECFEFD1E2DEBFCDBF31
:1000F00000E00CBF12E0A0E0B2E0E4E6F5E000E0D2
:100100000BBF02C007900D92A031B107D9F712E0E2
:10011000A0E1B2E001C01D92A632B107E1F70E9452
:1001200089020C94B0020C94000086E69EE00197D0
:10013000F1F700004098419880E388B9429AEFEFC8
:10014000F7E43197F1F700C000004298E6E6FEE0E0
:100150003197F1F700004098419888B9429AEFEF43
:10016000F7E43197F1F700C000004298E6E6FEE0C0
:100170003197F1F700004098419888B9429A8FEF83
:1001800097E40197F1F700C000004298E6E6FEE030
:100190003197F1F700004098419880E288B9429A7F
:1001A0008FEF97E40197F1F700C00000429808959F
:1001B00098B19F7098B998B1282F207F922B98B949
:1001C00040984198429AEFEFF7E43197F1F700C079
:1001D0000000429898B19F7098B998B18295807F3D
:1001E000892B88B940984198429A8FEF97E40197FC
:1001F000F1F700C00000429808950E94950086E63D
:100200009EE00197F1F7000088E20E94D80081E0AB
:100210000E94D80086E00E94D8008EE00E94D8009C
:1002200080E80E94D800089598B19F7098B998B15D
:10023000282F207F922B98B9409A4198429AEFEF4D
:10024000F7E43197F1F700C00000429898B19F7031
:1002500098B998B18295807F892B88B9409A419846
:10026000429A8FEF97E40197F1F700C0000042989F
:10027000089580E80E94D8000895CF93DF93EC01A1
:100280008881882331F021960E9414018991882366
:10029000D9F7DF91CF910895823079F0833018F447
:1002A0008130C9F405C0833069F08430A1F40FC0F7
:1002B000862F81580E94D8000895862F81540E946D
:1002C000D8000895862F8D560E94D8000895862F55
:1002D0008D520E94D80008950F931F93CF93DF9300
:1002E0008A01E901882311F0662319F40E9439017B
:1002F00002C00E944C01C530D10571F4C80160E113
:1003000077E20E949C02CB01C096909317028093E3
:1003100016020E94140103C0C430D105B9F4C8010B
:1003200068EE73E00E949C02CB0170931A02609306
:1003300019026AE070E00E949C02C0969093250228
:10034000809324020E94140181E001C080E0C33048
:10035000D10511F08130B1F4C80164E670E00E946B
:100360009C02CB0170931A02609319026AE070E05C
:100370000E949C02C09690932102809320020E94CA
:10038000140181E0C230D10511F08130B1F42AE0CE
:1003900030E0C801B9010E949C02CB0170931A029F
:1003A00060931902B9010E949C02C09690931E02AC
:1003B00080931D020E94140181E0C130D10511F02B
:1003C000813061F4C8016AE070E00E949C02C0962E
:1003D00090932302809322020E941401C630D1051B
:1003E0001CF085E40E941401DF91CF911F910F91C1
:1003F000089587B1876F87B988B1807888B90895E3
:1004000010BA11BA10920701109208010895EAE794
:10041000F0E0108210927B0080E280937C0080E804
:1004200080BF86E880830895883018F098E0909324
:100430007B008770806280937C00EAE7F0E0808137
:1004400080648083808184FFFDCF80917900EAE71A
:10045000F0E090819061908310927B0008958EE08F
:100460000E941402809315028FE00E941402809370
:100470001F028BE00E94140280931C0281E061E065
:100480000E944C0180E092E00E943D0140911502E3
:1004900081E064E050E023E030E00E946C0181E004
:1004A00067E00E944C0185E092E00E943D0140918E
:1004B0001F0281E06BE050E023E030E00E946C011D
:1004C00082E061E00E944C018BE092E00E943D01DD
:1004D00040911C0282E064E050E023E030E00E94A2
:1004E0006C01089580911502089580911F0208956E
:1004F00080911C0208950E94F9010E940002089553
:10050000F8940E947B020E94FD000E9407027894EA
:1005100008950E94800282E068E00E944C010E94DF
:100520002F020E947502482F82E068E050E023E02D
:1005300030E00E946C01F3CFAA1BBB1B51E107C046
:10054000AA1FBB1FA617B70710F0A61BB70B881F63
:10055000991F5A95A9F780959095BC01CD010895F2
:04056000F894FFCF3D
:1005640058203D20002079203D20007A203D2000A5
:00000001FF
