:100000000C9472000C9493000C9493000C94930045
:100010000C9493000C9493000C9493000C94930014
:100020000C9493000C9493000C9493000C94930004
:100030000C9493000C9493000C9493000C949300F4
:100040000C9493000C9493000C9493000C949300E4
:100050000C9493000C9493000C9493000C949300D4
:100060000C9493000C9493000C9493000C949300C4
:100070000C9493000C9493000C9493000C949300B4
:100080000C9493000C9493000C9493000C949300A4
:100090000C9493000C9493000C9493000C94930094
:1000A0000C9493000C9493000C9493000C94930084
:1000B0000C9493000C9493000C9493000C94930074
:1000C0000C9493000C9493000C9493000C94930064
:1000D0000C9493000C9493000C9493000C94930054
:1000E0000C94930011241FBECFEFD1E2DEBFCDBF31
:1000F00000E00CBF12E0A0E0B2E0EEE6F2E100E0CA
:100100000BBF02C007900D92AA30B107D9F712E0D9
:10011000AAE0B2E001C01D92A632B107E1F70E9449
:1001200022030C9435090C94000086E69EE00197AA
:10013000F1F700004098419880E388B9429AEFEFC8
:10014000F7E43197F1F700C000004298E6E6FEE0E0
:100150003197F1F700004098419888B9429AEFEF43
:10016000F7E43197F1F700C000004298E6E6FEE0C0
:100170003197F1F700004098419888B9429A8FEF83
:1001800097E40197F1F700C000004298E6E6FEE030
:100190003197F1F700004098419880E288B9429A7F
:1001A0008FEF97E40197F1F700C00000429808959F
:1001B00098B19F7098B998B1282F207F922B98B949
:1001C00040984198429AEFEFF7E43197F1F700C079
:1001D0000000429898B19F7098B998B18295807F3D
:1001E000892B88B940984198429A8FEF97E40197FC
:1001F000F1F700C00000429808950E94950086E63D
:100200009EE00197F1F7000088E20E94D80081E0AB
:100210000E94D80086E00E94D8008EE00E94D8009C
:1002200080E80E94D800089598B19F7098B998B15D
:10023000282F207F922B98B9409A4198429AEFEF4D
:10024000F7E43197F1F700C00000429898B19F7031
:1002500098B998B18295807F892B88B9409A419846
:10026000429A8FEF97E40197F1F700C0000042989F
:10027000089580E80E94D8000895CF93DF93EC01A1
:100280008881882331F021960E9414018991882366
:10029000D9F7DF91CF910895823079F0833018F447
:1002A0008130C9F405C0833069F08430A1F40FC0F7
:1002B000862F81580E94D8000895862F81540E946D
:1002C000D8000895862F8D560E94D8000895862F55
:1002D0008D520E94D80008950F931F93CF93DF9300
:1002E0008A01E901882311F0662319F40E9439017B
:1002F00002C00E944C01C530D10571F4C80160E113
:1003000077E20E945106CB01C09690930F02809332
:100310000E020E94140103C0C430D105B9F4C80113
:1003200068EE73E00E945106CB0170931302609354
:1003300012026AE070E00E945106C0969093250276
:10034000809324020E94140181E001C080E0C33048
:10035000D10511F08130B1F4C80164E670E00E946B
:100360005106CB0170931302609312026AE070E0B1
:100370000E945106C09690931F0280931E020E9415
:10038000140181E0C230D10511F08130B1F42AE0CE
:1003900030E0C801B9010E945106CB0170931302ED
:1003A00060931202B9010E945106C09690931B02FD
:1003B00080931A020E94140181E0C130D10511F02E
:1003C000813061F4C8016AE070E00E945106C09675
:1003D00090932302809322020E941401C630D1051B
:1003E0001CF085E40E941401DF91CF911F910F91C1
:1003F000089581E00E94D8008FEF9FE80197F1F700
:1004000000C0000008950F931F93CF93DF93CDB7E3
:10041000DEB7A1970FB6F894DEBF0FBECDBFFE01C9
:10042000B9966191719119821A821B821C829E0178
:100430002B5F3F4F8DE1D9011D928A95E9F7CE01DF
:1004400001964E2F5F2F0E946506082F192FCE01AF
:1004500001960E943D01802F912FA1960FB6F8942E
:10046000DEBF0FBECDBFDF91CF911F910F910895D9
:1004700087B1876F87B988B1807888B90895E1E33B
:10048000F1E0108280E28093300186E080933201B7
:100490008FE5809334011092350188E980830895B7
:1004A0006AE00E9445068295807F892B0895ECEBD7
:1004B000F0E0108280E18093B8001092B9001092B1
:1004C000BA0084E08083089594EA9093BC00ECEB3A
:1004D000F0E090819923ECF7EFEFFFE83197F1F727
:1004E00000C0000092ED9093BB0094E89093BC0094
:1004F000ECEBF0E090819923ECF7EFEFFFE8319718
:10050000F1F700C000006093BB0094E89093BC003A
:10051000ECEBF0E090819923ECF7EFEFFFE83197F7
:10052000F1F700C000008093BB0084E88093BC001A
:10053000ECEBF0E080818823ECF78FEF9FE80197E8
:10054000F1F700C0000084E98093BC00089594EAAC
:100550009093BC00ECEBF0E090819923ECF72FEF47
:100560003FE744E0215030404040E1F700C0000048
:1005700092ED9093BB0094E89093BC00ECEBF0E01C
:1005800090819923ECF7AFEFBFE81197F1F700C026
:1005900000008093BB0084E88093BC00ECEBF0E0AB
:1005A00080818823ECF7EFEFFFE83197F1F700C087
:1005B000000084EA8093BC00ECEBF0E080818823AB
:1005C000ECF78FEF9FE80197F1F700C0000083ED93
:1005D0008093BB0084E88093BC00ECEBF0E080816A
:1005E0008823ECF7AFEFBFE81197F1F700C00000E8
:1005F00084E88093BC00ECEBF0E080818823ECF78A
:10060000EBEBF0E08081AFEFBFE81197F1F700C0AE
:100610000000108294E89093BC00ECEBF0E0908135
:100620009923ECF7EFEFFFE83197F1F700C00000F6
:100630000895F8940E9438020E9457020E943F02D7
:1006400078940895F89478940E9438020E94FD00EE
:100650000E9419030E94FD008FE56EE20E94640271
:1006600080E163E20E9464028FE860E20E9464021B
:100670000F2EF6E3AF2EF1E0BF2EF02D0F2EF0E09F
:100680008F2EF2E09F2EF02DC2E0D2E00F2EF5E08B
:100690006F2EF2E07F2EF02D0F2EF7E04F2EF2E0BE
:1006A0005F2EF02D8FEF9FE7A6E181509040A04094
:1006B000E1F700C0000081E00E94D80088E20E94BB
:1006C000A702809310021092110289E20E94A702F1
:1006D000D5018C9389E20E94A702D82ECC24809168
:1006E0001002909111028C299D2990931102809300
:1006F00010028AE20E94A70280931C0210921D023F
:100700008BE20E94A702F82EEE2480911C029091A9
:100710001D028E299F2990931D0280931C028CE25A
:100720000E94A70280930C0210920D028DE20E949B
:10073000A702182F00E080910C0290910D02802BEF
:10074000912B90930D0280930C0260911002709196
:100750001102882777FD8095982F0E94560520E08A
:1007600030E044E652E40E94BB042AE037ED43E265
:100770005CE30E94E20520E030E040E251E40E94A8
:10078000E205262F372FF82FE92F462F572F682FF6
:10079000792F4093140250931502609316027093C0
:1007A0001702822F932FAF2FBE2FBC01CD010E94C5
:1007B0002305DC01CB0190931102809310029093EA
:1007C00021028093200281E061E00E944C01C4017B
:1007D0000E943D0182E061E00E944C0100D00F9236
:1007E000EDB7FEB7D283C1838091200290912102A0
:1007F000948383830E94030260911C0270911D0206
:10080000882777FD8095982F0E94560520E030E0DC
:1008100044E652E40E94BB042AE037ED43E25CE385
:100820000E94E20520E030E040E251E40E94E2054F
:10083000262F372FF82FE92F462F572F682F792F84
:10084000409314025093150260931602709317029E
:10085000822F932FAF2FBE2FBC01CD010E94230505
:10086000DC01CB0190931D0280931C02909319022E
:10087000809318020F900F900F900F9081E066E028
:100880000E944C01C3010E943D0182E066E00E948B
:100890004C0100D00F92ADB7BEB71296DC93CE9349
:1008A0001197809118029091190214969C938E933F
:1008B00013970E94030260910C0270910D02882729
:1008C00077FD8095982F0E94560520E030E044E6A1
:1008D00052E40E94BB042AE037ED43E25CE30E944D
:1008E000E20520E030E040E251E40E94E205262FDC
:1008F000372FF82FE92F462F572F682F792F409346
:100900001402509315026093160270931702822FFF
:10091000932FAF2FBE2FBC01CD010E942305DC0118
:10092000CB0190930D0280930C0290930B02809365
:100930000A020F900F900F900F9081E06BE00E94E1
:100940004C01C2010E943D0182E06BE00E944C011B
:1009500000D00F92EDB7FEB7D283C18380910A0217
:1009600090910B02948383830E9403020F900F9057
:100970000F900F9097CE0CD0EBC0E3D040F0DAD0C0
:1009800030F021F45F3F19F0CCC0511115C1CFC038
:10099000F0D098F39923C9F35523B1F3951B550B68
:1009A000BB27AA2762177307840738F09F5F5F4F42
:1009B000220F331F441FAA1FA9F333D00E2E3AF083
:1009C000E0E830D091505040E695001CCAF729D09D
:1009D000FE2F27D0660F771F881FBB1F26173707EC
:1009E0004807AB07B0E809F0BB0B802DBF01FF271C
:1009F00093585F4F2AF09E3F510568F092C0DCC0CB
:100A00005F3FECF3983EDCF3869577956795B79555
:100A1000F7959F5FC9F7880F911D9695879597F970
:100A20000895E1E0660F771F881FBB1F62177307E9
:100A30008407BA0720F0621B730B840BBA0BEE1FFE
:100A400088F7E095089504D06894B111B5C0089571
:100A500098D088F09F5790F0B92F9927B751A0F000
:100A6000D1F0660F771F881F991F1AF0BA95C9F742
:100A700012C0B13081F09FD0B1E008959CC0672FC3
:100A8000782F8827B85F39F0B93FCCF386957795F2
:100A90006795B395D9F73EF49095809570956195DB
:100AA0007F4F8F4F9F4F0895E89409C097FB3EF406
:100AB00090958095709561957F4F8F4F9F4F9923AB
:100AC000A9F0F92F96E9BB279395F6958795779529
:100AD0006795B795F111F8CFFAF4BB0F11F460FFE9
:100AE0001BC06F5F7F4F8F4F9F4F16C0882311F041
:100AF00096E911C0772321F09EE8872F762F05C055
:100B0000662371F096E8862F70E060E02AF09A95EF
:100B1000660F771F881FDAF7880F9695879597F9E4
:100B2000089597F99F6780E870E060E008959FEF6F
:100B300080EC089500240A94161617061806090674
:100B4000089500240A941216130614060506089543
:100B5000092E0394000C11F4882352F0BB0F40F4CB
:100B6000BF2B11F460FF04C06F5F7F4F8F4F9F4F0B
:100B7000089557FD9058440F551F59F05F3F71F08D
:100B80004795880F97FB991F61F09F3F79F08795F4
:100B90000895121613061406551FF2CF4695F1DF7D
:100BA00008C0161617061806991FF1CF869571050D
:100BB000610508940895E894BB2766277727CB0141
:100BC00097F908950BD0C4CFB5DF28F0BADF18F03D
:100BD000952309F0A6CFABCF1124EECFCADFA0F347
:100BE000959FD1F3950F50E0551F629FF001729FC2
:100BF000BB27F00DB11D639FAA27F00DB11DAA1FE1
:100C0000649F6627B00DA11D661F829F2227B00D2D
:100C1000A11D621F739FB00DA11D621F839FA00DB8
:100C2000611D221F749F3327A00D611D231F849F08
:100C3000600D211D822F762F6A2F11249F5750405F
:100C40008AF0E1F088234AF0EE0FFF1FBB1F661FFA
:100C5000771F881F91505040A9F79E3F510570F0B3
:100C600060CFAACF5F3FECF3983EDCF38695779593
:100C70006795B795F795E7959F5FC1F7FE2B880FAE
:100C8000911D9695879597F90895991B79E004C071
:100C9000991F961708F0961B881F7A95C9F78095BB
:100CA0000895AA1BBB1B51E107C0AA1FBB1FA617B3
:100CB000B70710F0A61BB70B881F991F5A95A9F705
:100CC00080959095BC01CD0108950F931F93CF930C
:100CD000DF93CDB7DEB72E970FB6F894DEBF0FBE09
:100CE000CDBF8C0186E08C831A8309838FEF9FE749
:100CF0009E838D83CE0101960E948E06EF81F8853A
:100D0000E00FF11F10822E960FB6F894DEBF0FBED3
:100D1000CDBFDF91CF911F910F9108952F923F92F8
:100D20004F925F926F927F928F929F92AF92BF92FB
:100D3000CF92DF92EF92FF920F931F93CF93DF93A7
:100D4000CDB7DEB72D970FB6F894DEBF0FBECDBF7F
:100D50003C017D876C875A01FC01178216828381D2
:100D600081FFC8C12E010894411C511CF3019381DD
:100D7000EC85FD8593FD859193FF8191FD87EC873F
:100D8000882309F4B3C1853241F493FD859193FF23
:100D90008191FD87EC87853229F490E0B3010E94B0
:100DA000AB08E4CFFF24EE2410E01032B0F48B3215
:100DB00069F08C3228F4803251F0833271F40BC028
:100DC0008D3239F0803349F411602CC01260146008
:100DD00029C0186027C0106125C017FD2EC0282F1C
:100DE00020532A3098F416FF08C08F2D880FF82E54
:100DF000FF0CFF0CF80EF20E15C08E2D880FE82E9A
:100E0000EE0CEE0CE80EE20E10620CC08E3221F4F5
:100E100016FD6CC1106406C08C3611F4106802C057
:100E2000883659F4EC85FD8593FD859193FF81917A
:100E3000FD87EC87882309F0B8CF982F955493301D
:100E400018F09052933038F424E030E0A20EB31E34
:100E50003FE339830FC0833631F0833781F0833528
:100E600009F05AC022C0F5018081898322E030E078
:100E7000A20EB31E21E0C22ED12C420114C092E07A
:100E8000292E312C2A0C3B1CF5018080918016FF05
:100E900003C06F2D70E002C06FEF7FEFC4010E94AE
:100EA000A0086C0151011F7715C082E0282E312C5B
:100EB0002A0C3B1CF5018080918016FF03C06F2D2A
:100EC00070E002C06FEF7FEFC4010E9495086C01D3
:100ED0001068510113FD1CC006C080E290E0B30110
:100EE0000E94AB08EA948E2D90E0C816D906A8F3AC
:100EF0000FC0F40117FD859117FF81914F0190E01C
:100F0000B3010E94AB08E110EA940894C108D1082B
:100F1000C114D10471F7E7C0843611F0893651F558
:100F2000F50117FF07C080819181A281B38124E080
:100F300030E008C080819181AA2797FDA095BA2F43
:100F400022E030E0A20EB31E012F0F76B7FF08C0DB
:100F5000B095A095909581959F4FAF4FBF4F00687A
:100F6000BC01CD01A2012AE030E00E94D708D82EB2
:100F7000D4183FC0853721F41F7E2AE030E020C01E
:100F8000197F8F36A9F0803720F4883509F0AEC07C
:100F90000BC0803721F0883709F0A8C001C010616C
:100FA00014FF09C0146007C014FF08C0166006C013
:100FB00028E030E005C020E130E002C020E132E06E
:100FC000F50117FF07C0608171818281938144E040
:100FD00050E006C06081718180E090E042E050E026
:100FE000A40EB51EA2010E94D708D82ED418012F36
:100FF0000F7706FF09C00E7FDF1430F404FF06C030
:1010000002FD04C00F7E02C01D2D01C01F2D802FC8
:1010100090E004FF0CC0FE01ED0DF11D2081203396
:1010200011F4097E09C002FF06C01E5F05C0867864
:101030009070009709F01F5F802E992403FD12C065
:1010400000FF0DC0FD2C1E1550F4FE0CF11A1E2DD4
:1010500006C080E290E0B3010E94AB081F5F1E153E
:10106000C0F304C01E1510F4E11A01C0EE2484FE82
:101070000FC080E390E0B3010E94AB0882FE1FC066
:1010800081FE03C088E590E010C088E790E00DC0C5
:10109000C40186789070009791F081FC02C080E2D4
:1010A00001C08BE207FD8DE290E0B3010E94AB0826
:1010B00006C080E390E0B3010E94AB08FA94DF140D
:1010C000C0F3DA94F201ED0DF11D808190E0B301DF
:1010D0000E94AB08DD20A9F706C080E290E0B301D2
:1010E0000E94AB08EA94EE20C1F740CEF30186815E
:1010F000978102C08FEF9FEF2D960FB6F894DEBF59
:101100000FBECDBFDF91CF911F910F91FF90EF9058
:10111000DF90CF90BF90AF909F908F907F906F9017
:101120005F904F903F902F900895FC010590615083
:1011300070400110D8F7809590958E0F9F1F0895ED
:10114000FC016150704001900110D8F78095909596
:101150008E0F9F1F08950F931F93CF93DF938C01E2
:10116000EB018B8181FF1BC082FF0DC02E813F816F
:101170008C819D812817390764F4E881F9810193F6
:10118000F983E88306C0E885F985802F19950097D3
:1011900031F48E819F8101969F838E8302C00FEF71
:1011A0001FEFC801DF91CF911F910F910895FA01B0
:1011B000AA27283051F1203181F1E8946F936E7F96
:1011C0006E5F7F4F8F4F9F4FAF4FB1E03ED0B4E087
:1011D0003CD0670F781F891F9A1FA11D680F791FC8
:1011E0008A1F911DA11D6A0F711D811D911DA11DD9
:1011F00020D009F468943F912AE0269F11243019E9
:10120000305D3193DEF6CF010895462F4770405D83
:101210004193B3E00FD0C9F7F6CF462F4F70405D32
:101220004A3318F0495D31FD4052419302D0A9F78D
:10123000EACFB4E0A6959795879577956795BA9587
:10124000C9F700976105710508959B01AC010A2E4D
:1012500006945795479537952795BA95C9F7620F24
:0E126000731F841F951FA01D0895F894FFCFE3
:0A126E00580025640059005A0000E2
:00000001FF
