:100000000C9472000C9493000C9493000C94930045
:100010000C9493000C9493000C9493000C94930014
:100020000C9493000C9493000C9493000C94930004
:100030000C9493000C9493000C9493000C949300F4
:100040000C9493000C9493000C9493000C949300E4
:100050000C9493000C9493000C9493000C949300D4
:100060000C9493000C9493000C9493000C949300C4
:100070000C9493000C9493000C9493000C949300B4
:100080000C9493000C9493000C9493000C949300A4
:100090000C9493000C9493000C9493000C94930094
:1000A0000C9493000C9493000C9493000C94930084
:1000B0000C9493000C9493000C9493000C94930074
:1000C0000C9493000C9493000C9493000C94930064
:1000D0000C9493000C9493000C9421020C949300C4
:1000E0000C94930011241FBECFEFD1E2DEBFCDBF31
:1000F00000E00CBF12E0A0E0B2E0E2EEF5E000E0CC
:100100000BBF02C007900D92A633B107D9F712E0DA
:10011000A6E3B2E001C01D92A834B107E1F70E9446
:10012000C1020C94EF020C94000086E190E9019763
:10013000F1F700004098419880E388B9429A29E598
:1001400030E442E0215030404040E1F70000429866
:10015000A6E1B0E91197F1F700004098419888B9FD
:10016000429A29E530E442E0215030404040E1F736
:1001700000004298A6E1B0E91197F1F7000040981D
:10018000419888B9429A29E530E442E02150304054
:100190004040E1F70000429886E190E90197F1F7CD
:1001A00000004098419880E288B9429A29E530E4FD
:1001B00042E0215030404040E1F70000429808956D
:1001C00098B19F7098B998B1282F207F922B98B939
:1001D00040984198429A29E530E442E0215030406D
:1001E0004040E1F70000429898B19F7098B998B1EB
:1001F0008295807F892B88B940984198429A89E5F9
:1002000090E4A2E081509040A040E1F700004298C5
:1002100008950E94950086E190E90197F1F70000AA
:1002200088E20E94E00081E00E94E00086E00E94F7
:10023000E0008EE00E94E00080E80E94E000089567
:1002400098B19F7098B998B1282F207F922B98B9B8
:10025000409A4198429A29E530E442E021503040EA
:100260004040E1F70000429898B19F7098B998B16A
:100270008295807F892B88B9409A4198429A89E576
:1002800090E4A2E081509040A040E1F70000429845
:10029000089580E80E94E0000895CF93DF93EC0179
:1002A0008881882331F021960E942001899188233A
:1002B000D9F7DF91CF910895823079F0833018F427
:1002C0008130C9F405C0833069F08430A1F40FC0D7
:1002D000862F81580E94E0000895862F81540E9445
:1002E000E0000895862F8D560E94E0000895862F25
:1002F0008D520E94E00008950F931F93CF93DF93D8
:100300008A01E901882311F0662319F40E9449014A
:1003100002C00E945C01C530D10571F4C80160E1E2
:1003200077E20E94DB02CB01C09690933D0280935E
:100330003C020E94200103C0C430D105B9F4C801B9
:1003400068EE73E00E94DB02CB0170933F02609382
:100350003E026AE070E00E94DB02C0969093470282
:10036000809346020E94200181E001C080E0C330FA
:10037000D10511F08130B1F4C80164E670E00E944B
:10038000DB02CB0170933F0260933E026AE070E0B3
:100390000E94DB02C09690934302809342020E9427
:1003A000200181E0C230D10511F08130B1F42AE0A2
:1003B00030E0C801B9010E94DB02CB0170933F021B
:1003C00060933E02B9010E94DB02C0969093410205
:1003D000809340020E94200181E0C130D10511F0DC
:1003E000813061F4C8016AE070E00E94DB02C096CF
:1003F00090934502809344020E942001C630D105AB
:100400001CF085E40E942001DF91CF911F910F9194
:10041000089587B1876F87B988B1807888B90895C2
:10042000E1E3F1E0108280E28093300186E0809386
:1004300032018FE5809334011092350188E9808381
:1004400008951F920F920FB60F920BB60F921124C0
:100450002F938F939F93EF93FF9381E090E090937E
:1004600037028093360280913802909139022091B0
:100470003601FC01E75DFD4F208301969093390220
:10048000809338028C30910529F410923902109231
:100490003802F894FF91EF919F918F912F910F90D7
:1004A0000BBE0F900FBE0F901F901895CF93DF9348
:1004B00081E00E94E00080E092E00E944D018EEF1A
:1004C0009BE1A4EB81509040A040E1F700C000C048
:1004D00080913602909137028130910509F03DC03C
:1004E000F894109239021092380281E061E00E9483
:1004F0005C018BE092E00E944D0182E061E00E948D
:100500005C0110923B0210923A0280E090E0C9E256
:10051000D2E08C0F9D1FDC018C910E942001809104
:100520003A0290913B02019690933B0280933A02EB
:100530008C30910570F38FE791E9A0E781509040EE
:10054000A040E1F700C0000081E00E94E0001092AE
:10055000370210923602789408C081E061E00E9470
:100560005C0186E192E00E944D01DF91CF910895F8
:10057000F8940E9409020E9409010E9410027894D6
:1005800008950E94B80282E064E00E945C018FE757
:1005900093E8A6E181509040A040E1F700C0000040
:1005A0000E945602F89481E00E94E00082E064E03C
:1005B0000E945C010895AA1BBB1B51E107C0AA1F42
:1005C000BB1FA617B70710F0A61BB70B881F991FF4
:1005D0005A95A9F780959095BC01CD010895F8949E
:0205E000FFCF4B
:1005E2007363616E696E672E2E2E002020205745A0
:1005F2004C434F4D450020506C6561736520736319
:10060200616E20616761696E0020000000000000D9
:06061200000000000000E2
:00000001FF
