:100000000C9472000C9493000C9493000C94930045
:100010000C9493000C9493000C9493000C94930014
:100020000C9493000C9493000C9493000C94930004
:100030000C9493000C9493000C9493000C949300F4
:100040000C9493000C9493000C9493000C949300E4
:100050000C9493000C9493000C9493000C949300D4
:100060000C9493000C9493000C9493000C949300C4
:100070000C9493000C9493000C9493000C949300B4
:100080000C9493000C9493000C9493000C949300A4
:100090000C9493000C9493000C9493000C94930094
:1000A0000C9493000C9493000C9493000C94930084
:1000B0000C9493000C9493000C9493000C94930074
:1000C0000C9493000C9493000C9493000C94930064
:1000D0000C9493000C9493000C9493000C94930054
:1000E0000C94930011241FBECFEFD1E2DEBFCDBF31
:1000F00000E00CBF12E0A0E0B2E0EEEFF4E000E0C0
:100100000BBF02C007900D92AC31B107D9F712E0D6
:10011000ACE1B2E001C01D92A832B107E1F70E9444
:1001200067020C947D020C94000086E69EE0019725
:10013000F1F700004098419880E388B9429AEFEFC8
:10014000F7E43197F1F700C000004298E6E6FEE0E0
:100150003197F1F700004098419888B9429AEFEF43
:10016000F7E43197F1F700C000004298E6E6FEE0C0
:100170003197F1F700004098419888B9429A8FEF83
:1001800097E40197F1F700C000004298E6E6FEE030
:100190003197F1F700004098419880E288B9429A7F
:1001A0008FEF97E40197F1F700C00000429808959F
:1001B00098B19F7098B998B1282F207F922B98B949
:1001C00040984198429AEFEFF7E43197F1F700C079
:1001D0000000429898B19F7098B998B18295807F3D
:1001E000892B88B940984198429A8FEF97E40197FC
:1001F000F1F700C00000429808950E94950086E63D
:100200009EE00197F1F7000088E20E94D80081E0AB
:100210000E94D80086E00E94D8008EE00E94D8009C
:1002200080E80E94D800089598B19F7098B998B15D
:10023000282F207F922B98B9409A4198429AEFEF4D
:10024000F7E43197F1F700C00000429898B19F7031
:1002500098B998B18295807F892B88B9409A419846
:10026000429A8FEF97E40197F1F700C0000042989F
:10027000089580E80E94D8000895CF93DF93EC01A1
:100280008881882331F021960E9414018991882366
:10029000D9F7DF91CF910895823079F0833018F447
:1002A0008130C9F405C0833069F08430A1F40FC0F7
:1002B000862F81580E94D8000895862F81540E946D
:1002C000D8000895862F8D560E94D8000895862F55
:1002D0008D520E94D80008950F931F93CF93DF9300
:1002E0008A01E901882311F0662319F40E9439017B
:1002F00002C00E944C01C530D10571F4C80160E113
:1003000077E20E946902CB01C09690931D02809310
:100310001C020E94140103C0C430D105B9F4C80105
:1003200068EE73E00E946902CB0170931F02609334
:100330001E026AE070E00E946902C0969093270254
:10034000809326020E94140181E001C080E0C33046
:10035000D10511F08130B1F4C80164E670E00E946B
:100360006902CB0170931F0260931E026AE070E085
:100370000E946902C09690932302809322020E94F9
:10038000140181E0C230D10511F08130B1F42AE0CE
:1003900030E0C801B9010E946902CB0170931F02CD
:1003A00060931E02B9010E946902C09690932102D7
:1003B000809320020E94140181E0C130D10511F028
:1003C000813061F4C8016AE070E00E946902C09661
:1003D00090932502809324020E941401C630D10517
:1003E0001CF085E40E941401DF91CF911F910F91C1
:1003F0000895EAE0F1E080818F7B8083EBE0F1E01B
:1004000080818064808308958FEF8093040110922F
:100410000501089587B1876F87B988B1807888B959
:1004200008950E940A020E9404020E94F9010895A0
:10043000F8940E941102789408950E9418020E9474
:10044000950001E010E00F2EF9E0EF2EF1E0FF2E15
:10045000F02D0F2EF5E0CF2EF1E0DF2EF02DDFEFA7
:100460000F2EF0E0AF2EF2E0BF2EF02D882499245D
:100470000F2EFFE06F2EF2E07F2EF02D4424552446
:100480004394F701C0810E94FD00C6FF10C0F60131
:10049000D0830130110531F40E94FD0081E061E05C
:1004A0000E944C01C5010E943D018401EACFF60182
:1004B00010820115110531F40E94FD0081E061E018
:1004C0000E944C01C3010E943D018201DACF0E94CB
:1004D0001D02AA1BBB1B51E107C0AA1FBB1FA61709
:1004E000B70710F0A61BB70B881F991F5A95A9F7DD
:0E04F00080959095BC01CD010895F894FFCF42
:1004FE0048756D616E20446574656374656400456E
:0C050E006D70747920537061636500000B
:00000001FF
