:100000000C9472000C9493000C9493000C94930045
:100010000C9493000C9493000C9493000C94930014
:100020000C9493000C9493000C9493000C94930004
:100030000C9493000C9493000C9493000C949300F4
:100040000C9493000C9493000C9493000C949300E4
:100050000C9493000C9493000C9493000C949300D4
:100060000C9493000C9493000C9493000C949300C4
:100070000C9493000C9493000C9493000C949300B4
:100080000C9493000C9493000C9493000C949300A4
:100090000C9493000C9493000C9493000C94930094
:1000A0000C9493000C9493000C9493000C94930084
:1000B0000C9493000C9493000C9493000C94930074
:1000C0000C9493000C9493000C9493000C94930064
:1000D0000C9493000C9493000C9493000C94930054
:1000E0000C94930011241FBECFEFD1E2DEBFCDBF31
:1000F00000E00CBF12E0A0E0B2E0ECE8F5E000E0C8
:100100000BBF02C007900D92AC31B107D9F712E0D6
:10011000ACE1B2E001C01D92AC32B107E1F70E9440
:100120008B020C94C4020C94000086E190E90197C4
:10013000F1F700004098419880E388B9429A29E598
:1001400030E442E0215030404040E1F70000429866
:10015000A6E1B0E91197F1F700004098419888B9FD
:10016000429A29E530E442E0215030404040E1F736
:1001700000004298A6E1B0E91197F1F7000040981D
:10018000419888B9429A29E530E442E02150304054
:100190004040E1F70000429886E190E90197F1F7CD
:1001A00000004098419880E288B9429A29E530E4FD
:1001B00042E0215030404040E1F70000429808956D
:1001C00098B19F7098B998B1282F207F922B98B939
:1001D00040984198429A29E530E442E0215030406D
:1001E0004040E1F70000429898B19F7098B998B1EB
:1001F0008295807F892B88B940984198429A89E5F9
:1002000090E4A2E081509040A040E1F700004298C5
:1002100008950E94950086E190E90197F1F70000AA
:1002200088E20E94E00081E00E94E00086E00E94F7
:10023000E0008EE00E94E00080E80E94E000089567
:1002400098B19F7098B998B1282F207F922B98B9B8
:10025000409A4198429A29E530E442E021503040EA
:100260004040E1F70000429898B19F7098B998B16A
:100270008295807F892B88B9409A4198429A89E576
:1002800090E4A2E081509040A040E1F70000429845
:10029000089580E80E94E0000895CF93DF93EC0179
:1002A0008881882331F021960E942001899188233A
:1002B000D9F7DF91CF910895823079F0833018F427
:1002C0008130C9F405C0833069F08430A1F40FC0D7
:1002D000862F81580E94E0000895862F81540E9445
:1002E000E0000895862F8D560E94E0000895862F25
:1002F0008D520E94E00008950F931F93CF93DF93D8
:100300008A01E901882311F0662319F40E9449014A
:1003100002C00E945C01C530D10571F4C80160E1E2
:1003200077E20E94B002CB01C09690931D028093A9
:100330001C020E94200103C0C430D105B9F4C801D9
:1003400068EE73E00E94B002CB01709320026093CC
:100350001F026AE070E00E94B002C09690932B02E8
:1003600080932A020E94200181E001C080E0C33016
:10037000D10511F08130B1F4C80164E670E00E944B
:10038000B002CB017093200260931F026AE070E01C
:100390000E94B002C09690932602809325020E948C
:1003A000200181E0C230D10511F08130B1F42AE0A2
:1003B00030E0C801B9010E94B002CB017093200265
:1003C00060931F02B9010E94B002C096909324026C
:1003D000809323020E94200181E0C130D10511F0F9
:1003E000813061F4C8016AE070E00E94B002C096FA
:1003F00090932902809328020E942001C630D105E3
:100400001CF085E40E942001DF91CF911F910F9194
:10041000089587B1876F87B988B1807888B90895C2
:1004200010BA11BA10920701109208010895EAE774
:10043000F0E0108210927B0080E280937C0080E8E4
:1004400080BF86E880830895883018F098E0909304
:100450007B008770806280937C008FE79AE8A3E43A
:1004600081509040A040E1F700C00000EAE7F0E0D2
:100470008081806480838FE79AE8A3E48150904074
:10048000A040E1F700C00000808184FFFDCF809193
:10049000780090917900990F990FEAE7F0E02081B8
:1004A0002061208310927B008295869586958370CB
:1004B000892B08958BE00E9424028093210280E022
:1004C00092E00E944D0182E061E00E945C018DE0BB
:1004D00092E00E944D014091210282E06AE050E0EA
:1004E00023E030E00E947C0188E192E00E944D010F
:1004F00008950E9409020E9410020895F8940E9433
:1005000079020E9409010E9417027894089580914F
:10051000210290E008950E947E028FE79AE8A3E40A
:1005200081509040A040E1F700C000000E945A02B4
:100530008FE79AE8A3E481509040A040E1F700C023
:1005400000000E948702C82F81E00E94E00081E045
:1005500061E04C2F50E023E030E00E947C01DDCFD1
:10056000AA1BBB1B51E107C0AA1FBB1FA617B707D9
:1005700010F0A61BB70B881F991F5A95A9F78095F5
:0C0580009095BC01CD010895F894FFCFC8
:10058C0020202020452059616E74726100446973EB
:0C059C0074616E63653D200020636D00FB
:00000001FF
