:100000000C9472000C9493000C9493000C94930045
:100010000C9493000C9493000C9493000C94930014
:100020000C9493000C9493000C9493000C94930004
:100030000C9493000C9493000C9493000C949300F4
:100040000C9493000C9493000C9493000C949300E4
:100050000C9493000C9493000C9493000C949300D4
:100060000C9493000C9454020C9493000C94930001
:100070000C9493000C9493000C9493000C949300B4
:100080000C9493000C9493000C9493000C949300A4
:100090000C9493000C9493000C9493000C94930094
:1000A0000C9493000C9493000C9493000C94930084
:1000B0000C9493000C9493000C9493000C94930074
:1000C0000C9493000C9493000C9493000C94930064
:1000D0000C9493000C9493000C9493000C94930054
:1000E0000C94930011241FBECFEFD1E2DEBFCDBF31
:1000F00000E00CBF12E0A0E0B2E0E0E5F9E000E0D3
:100100000BBF02C007900D92AC34B107D9F712E0D3
:10011000ACE4B2E001C01D92AE3CB107E1F70E9431
:1001200071040C94A6040C94000089EF90E00197F0
:10013000F1F700C000004098419880E388B9429AE6
:10014000E1EEF4E03197F1F700C000004298E9EFEA
:10015000F0E03197F1F700C000004098419888B96D
:10016000429AE1EEF4E03197F1F700C000004298C6
:10017000E9EFF0E03197F1F700C0000040984198B6
:1001800088B9429A81EE94E00197F1F700C000002F
:100190004298E9EFF0E03197F1F700C00000409895
:1001A000419880E288B9429A81EE94E00197F1F794
:1001B00000C000004298089598B19F7098B998B116
:1001C000282F207F922B98B940984198429AE1EECF
:1001D000F4E03197F1F700C00000429898B19F70A9
:1001E00098B998B18295807F892B88B940984198B9
:1001F000429A81EE94E00197F1F700C00000429826
:1002000008950E94950089EF90E00197F1F700C0F2
:10021000000088E20E94DC0081E00E94DC0086E0B1
:100220000E94DC008EE00E94DC0080E80E94DC007E
:10023000089598B19F7098B998B1282F207F922B7C
:1002400098B9409A4198429AE1EEF4E03197F1F77B
:1002500000C00000429898B19F7098B998B18295FB
:10026000807F892B88B9409A4198429A81EE94E028
:100270000197F1F700C000004298089580E80E94BD
:10028000DC000895CF93DF93EC018881882331F05F
:1002900021960E94190189918823D9F7DF91CF9186
:1002A0000895823079F0833018F48130C9F405C0A4
:1002B000833069F08430A1F40FC0862F81580E94EA
:1002C000DC000895862F81540E94DC000895862F5B
:1002D0008D560E94DC000895862F8D520E94DC000E
:1002E00008950F931F93CF93DF938A01E901882329
:1002F00011F0662319F40E943E0102C00E945101D0
:10030000C530D10571F4C80160E177E20E94920422
:10031000CB01C0969093B6028093B5020E9419015A
:1003200003C0C430D105B9F4C80168EE73E00E947F
:100330009204CB017093BA026093B9026AE070E054
:100340000E949204C0969093CB028093CA020E94AE
:10035000190181E001C080E0C330D10511F0813086
:10036000B1F4C80164E670E00E949204CB0170937E
:10037000BA026093B9026AE070E00E949204C096EB
:100380009093C5028093C4020E94190181E0C2309B
:10039000D10511F08130B1F42AE030E0C801B90193
:1003A0000E949204CB017093BA026093B902B90122
:1003B0000E949204C0969093BF028093BE020E9456
:1003C000190181E0C130D10511F0813061F4C8011B
:1003D0006AE070E00E949204C0969093C8028093F5
:1003E000C7020E941901C630D1051CF085E40E94A5
:1003F0001901DF91CF911F910F910895E1E2F1E092
:1004000010828FEF8093250191E090932401109248
:1004100029018093280110922B0180932A011092C8
:100420002D0180932C0189EA809320018BE0808349
:1004300008958093280160932A010895E1ECF0E08B
:1004400010821092C00086E08093C2008FE58093F6
:10045000C4001092C50088E98083089581B18F603F
:1004600081B982B1807F82B9EAE0F1E08081886160
:100470008083EBE0F1E0808188618083089587B11B
:10048000876F87B988B1807888B9089586E082B986
:10049000089585E082B908958AE082B9089589E0D7
:1004A00082B9089512B808951F920F920FB60F9255
:1004B0000BB60F9211242F933F934F935F936F933B
:1004C0007F938F939F93AF93BF93EF93FF93F89492
:1004D00080914E0290914F022091C600FC01E05B9A
:1004E000FD4F2083019690934F0280934E028031FE
:1004F000910509F0D7C110924F0210924E0240911F
:10050000500281E061E050E023E030E00E947101A0
:1005100040915B0281E065E050E023E030E00E9422
:10052000710140915C0281E069E050E023E030E03D
:100530000E94710140915D0282E061E050E023E0A1
:1005400030E00E94710140915E0282E065E050E07F
:1005500023E030E00E94710120915B022093B702FA
:1005600030915C023093C90280915D028093BC029D
:1005700090915E029093CC02813041F49D3D30F029
:10058000223021F4303210F48093C2028091BC02F8
:10059000813031F58091CC028A3A88F4833378F047
:1005A0008091B702823059F48091C902863038F0C8
:1005B00081E08093C6028091BC02813089F48091F1
:1005C000CC02823368F4823058F08091B7028230D6
:1005D00099F58091C902863078F181E08093BD025F
:1005E0008091BC02823041F58091CC028F3188F03D
:1005F000843678F48091B702823059F48091C90230
:10060000863038F081E08093B8028091BC0282305D
:1006100099F48091CC02853678F08F3F69F0809113
:10062000B702823009F05EC08091C902863008F4BA
:1006300059C081E08093B4028091BC02813009F0FE
:1006400051C08091CC028D3D08F44CC08091B7021E
:10065000823089F48091C902833368F0863958F476
:1006600081E08093CD028091BC028130D9F58091E8
:10067000CC028D3DB8F18091B702823089F480912F
:10068000C902873968F08F3F59F081E08093C30237
:100690008091BC02813031F58091CC028D3D10F10A
:1006A0008091B702813089F48091C902863E68F456
:1006B000853658F081E08093C1028091BC02813080
:1006C00089F48091CC028D3D68F08091B702813031
:1006D00049F48091C902843628F4882319F081E016
:1006E0008093BB028091CD028130A1F482E06AE068
:1006F0000E94510180E092E00E94420186E966E991
:100700000E9419020E944C0283ED90E30197F1F7D9
:1007100000C000008091C1028130A1F482E06AE053
:100720000E94510187E092E00E94420186E966E959
:100730000E9419020E94490283ED90E30197F1F7AC
:1007400000C000008091B8028130A1F482E06AE02C
:100750000E9451018FE092E00E94420186E966E921
:100760000E9419020E944F0283ED90E30197F1F776
:1007700000C000008091C3028130A1F482E06AE0F1
:100780000E94510187E192E00E9442018FEF6FEFDA
:100790000E9419020E944C0287EA91E60197F1F744
:1007A00000C000008091BB028130A1F482E06AE0C9
:1007B0000E9451018EE192E00E9442018FEF6FEFA3
:1007C0000E9419020E94490287EA91E60197F1F717
:1007D00000C000008091B4028130A1F482E06AE0A0
:1007E0000E94510186E292E00E9442018FEF6FEF7A
:1007F0000E9419020E944F0287EA91E60197F1F7E1
:1008000000C000008091C6028130A1F482E06AE05D
:100810000E9451018EE292E00E94420186E966E95F
:100820000E9419020E94460283ED90E30197F1F7BE
:1008300000C000008091BD028130A1F482E06AE036
:100840000E94510186E392E00E9442018FEF6FEF18
:100850000E9419020E94460287EA91E60197F1F789
:1008600000C000008091C202813051F482E06AE051
:100870000E9451018EE392E00E9442010E945202C6
:100880001092BB021092C1021092C3021092CD02CC
:100890001092B4021092B8021092BD021092C602D9
:1008A0001092C2027894FF91EF91BF91AF919F9106
:1008B0008F917F916F915F914F913F912F910F9009
:1008C0000BBE0F900FBE0F901F901895F8940E94CA
:1008D000FE010E941E020E943F020E942E02789496
:1008E00008951092BB021092C1021092C30210929E
:1008F000CD021092B4021092B8021092BD02109272
:10090000C6021092C2020E9466040E94010188E49D
:1009100092E00E94420187EA91E60197F1F700C058
:100920000000FFCFAA1BBB1B51E107C0AA1FBB1FC2
:10093000A617B70710F0A61BB70B881F991F5A956B
:10094000A9F780959095BC01CD010895F894FFCF4B
:10095000726967687431006C6566743120200062CA
:1009600061636B31202000726967687432006C65C6
:100970006674322020006261636B3220200066774B
:1009800064312020200066776432202020007374B8
:0C09900065616479202020006869000087
:00000001FF
